{"abi":[{"type":"constructor","inputs":[{"name":"_wbbtToken","type":"address","internalType":"address"}],"stateMutability":"nonpayable"},{"type":"function","name":"CLAIM_PERIOD","inputs":[],"outputs":[{"name":"","type":"uint256","internalType":"uint256"}],"stateMutability":"view"},{"type":"function","name":"DAILY_CLAIM_AMOUNT","inputs":[],"outputs":[{"name":"","type":"uint256","internalType":"uint256"}],"stateMutability":"view"},{"type":"function","name":"MAX_CLAIM_AMOUNT","inputs":[],"outputs":[{"name":"","type":"uint256","internalType":"uint256"}],"stateMutability":"view"},{"type":"function","name":"claimTokens","inputs":[],"outputs":[],"stateMutability":"nonpayable"},{"type":"function","name":"fundFaucet","inputs":[{"name":"amount","type":"uint256","internalType":"uint256"}],"outputs":[],"stateMutability":"nonpayable"},{"type":"function","name":"lastClaimTime","inputs":[{"name":"","type":"address","internalType":"address"}],"outputs":[{"name":"","type":"uint256","internalType":"uint256"}],"stateMutability":"view"},{"type":"function","name":"owner","inputs":[],"outputs":[{"name":"","type":"address","internalType":"address"}],"stateMutability":"view"},{"type":"function","name":"remainingClaimableAmount","inputs":[{"name":"user","type":"address","internalType":"address"}],"outputs":[{"name":"","type":"uint256","internalType":"uint256"}],"stateMutability":"view"},{"type":"function","name":"renounceOwnership","inputs":[],"outputs":[],"stateMutability":"nonpayable"},{"type":"function","name":"timeUntilNextClaim","inputs":[{"name":"user","type":"address","internalType":"address"}],"outputs":[{"name":"","type":"uint256","internalType":"uint256"}],"stateMutability":"view"},{"type":"function","name":"totalClaimed","inputs":[{"name":"","type":"address","internalType":"address"}],"outputs":[{"name":"","type":"uint256","internalType":"uint256"}],"stateMutability":"view"},{"type":"function","name":"transferOwnership","inputs":[{"name":"newOwner","type":"address","internalType":"address"}],"outputs":[],"stateMutability":"nonpayable"},{"type":"function","name":"wbbtToken","inputs":[],"outputs":[{"name":"","type":"address","internalType":"contract IERC20"}],"stateMutability":"view"},{"type":"function","name":"withdrawTokens","inputs":[{"name":"amount","type":"uint256","internalType":"uint256"}],"outputs":[],"stateMutability":"nonpayable"},{"type":"event","name":"FaucetFunded","inputs":[{"name":"funder","type":"address","indexed":true,"internalType":"address"},{"name":"amount","type":"uint256","indexed":false,"internalType":"uint256"}],"anonymous":false},{"type":"event","name":"OwnershipTransferred","inputs":[{"name":"previousOwner","type":"address","indexed":true,"internalType":"address"},{"name":"newOwner","type":"address","indexed":true,"internalType":"address"}],"anonymous":false},{"type":"event","name":"TokensClaimed","inputs":[{"name":"user","type":"address","indexed":true,"internalType":"address"},{"name":"amount","type":"uint256","indexed":false,"internalType":"uint256"}],"anonymous":false},{"type":"error","name":"OwnableInvalidOwner","inputs":[{"name":"owner","type":"address","internalType":"address"}]},{"type":"error","name":"OwnableUnauthorizedAccount","inputs":[{"name":"account","type":"address","internalType":"address"}]},{"type":"error","name":"ReentrancyGuardReentrantCall","inputs":[]}],"bytecode":{"object":"0x608060405234801562000010575f80fd5b506040516200190e3803806200190e8339818101604052810190620000369190620002a1565b335f73ffffffffffffffffffffffffffffffffffffffff168173ffffffffffffffffffffffffffffffffffffffff1603620000aa575f6040517f1e4fbdf7000000000000000000000000000000000000000000000000000000008152600401620000a19190620002e2565b60405180910390fd5b620000bb816200017b60201b60201c565b50600180819055505f73ffffffffffffffffffffffffffffffffffffffff168173ffffffffffffffffffffffffffffffffffffffff160362000134576040517f08c379a00000000000000000000000000000000000000000000000000000000081526004016200012b906200035b565b60405180910390fd5b8060025f6101000a81548173ffffffffffffffffffffffffffffffffffffffff021916908373ffffffffffffffffffffffffffffffffffffffff160217905550506200037b565b5f805f9054906101000a900473ffffffffffffffffffffffffffffffffffffffff169050815f806101000a81548173ffffffffffffffffffffffffffffffffffffffff021916908373ffffffffffffffffffffffffffffffffffffffff1602179055508173ffffffffffffffffffffffffffffffffffffffff168173ffffffffffffffffffffffffffffffffffffffff167f8be0079c531659141344cd1fd0a4f28419497f9722a3daafe3b4186f6b6457e060405160405180910390a35050565b5f80fd5b5f73ffffffffffffffffffffffffffffffffffffffff82169050919050565b5f6200026b8262000240565b9050919050565b6200027d816200025f565b811462000288575f80fd5b50565b5f815190506200029b8162000272565b92915050565b5f60208284031215620002b957620002b86200023c565b5b5f620002c8848285016200028b565b91505092915050565b620002dc816200025f565b82525050565b5f602082019050620002f75f830184620002d1565b92915050565b5f82825260208201905092915050565b7f496e76616c696420746f6b656e206164647265737300000000000000000000005f82015250565b5f62000343601583620002fd565b915062000350826200030d565b602082019050919050565b5f6020820190508181035f830152620003748162000335565b9050919050565b61158580620003895f395ff3fe608060405234801561000f575f80fd5b50600436106100e8575f3560e01c806392d82dbe1161008a578063b77cf9c611610064578063b77cf9c614610210578063e362b4f714610240578063ef5d9ae81461025e578063f2fde38b1461028e576100e8565b806392d82dbe146101a6578063a8cb6250146101d6578063ae0140b4146101f4576100e8565b80636c8cbd0d116100c65780636c8cbd0d14610130578063715018a61461014e57806376df5926146101585780638da5cb5b14610188576100e8565b806321241dfe146100ec578063315a095d1461010a57806348c54b9d14610126575b5f80fd5b6100f46102aa565b6040516101019190610fae565b60405180910390f35b610124600480360381019061011f9190610ff5565b6102b1565b005b61012e6104bb565b005b610138610980565b6040516101459190610fae565b60405180910390f35b61015661098c565b005b610172600480360381019061016d919061107a565b61099f565b60405161017f9190610fae565b60405180910390f35b610190610a4d565b60405161019d91906110b4565b60405180910390f35b6101c060048036038101906101bb919061107a565b610a74565b6040516101cd9190610fae565b60405180910390f35b6101de610ba9565b6040516101eb9190611128565b60405180910390f35b61020e60048036038101906102099190610ff5565b610bce565b005b61022a6004803603810190610225919061107a565b610d3e565b6040516102379190610fae565b60405180910390f35b610248610d53565b6040516102559190610fae565b60405180910390f35b6102786004803603810190610273919061107a565b610d5f565b6040516102859190610fae565b60405180910390f35b6102a860048036038101906102a3919061107a565b610d74565b005b6201518081565b6102b9610df8565b5f81116102fb576040517f08c379a00000000000000000000000000000000000000000000000000000000081526004016102f29061119b565b60405180910390fd5b8060025f9054906101000a900473ffffffffffffffffffffffffffffffffffffffff1673ffffffffffffffffffffffffffffffffffffffff166370a08231306040518263ffffffff1660e01b815260040161035691906110b4565b602060405180830381865afa158015610371573d5f803e3d5ffd5b505050506040513d601f19601f8201168201806040525081019061039591906111cd565b10156103d6576040517f08c379a00000000000000000000000000000000000000000000000000000000081526004016103cd90611242565b60405180910390fd5b60025f9054906101000a900473ffffffffffffffffffffffffffffffffffffffff1673ffffffffffffffffffffffffffffffffffffffff1663a9059cbb61041b610a4d565b836040518363ffffffff1660e01b8152600401610439929190611260565b6020604051808303815f875af1158015610455573d5f803e3d5ffd5b505050506040513d601f19601f8201168201806040525081019061047991906112bc565b6104b8576040517f08c379a00000000000000000000000000000000000000000000000000000000081526004016104af90611331565b60405180910390fd5b50565b6104c3610e7f565b5f3390506714d1120d7b16000060045f8373ffffffffffffffffffffffffffffffffffffffff1673ffffffffffffffffffffffffffffffffffffffff1681526020019081526020015f20541061054e576040517f08c379a000000000000000000000000000000000000000000000000000000000815260040161054590611399565b60405180910390fd5b5f60035f8373ffffffffffffffffffffffffffffffffffffffff1673ffffffffffffffffffffffffffffffffffffffff1681526020019081526020015f205414806105e457506201518060035f8373ffffffffffffffffffffffffffffffffffffffff1673ffffffffffffffffffffffffffffffffffffffff1681526020019081526020015f20546105e091906113e4565b4210155b610623576040517f08c379a000000000000000000000000000000000000000000000000000000000815260040161061a90611461565b60405180910390fd5b5f6706f05b59d3b2000090506714d1120d7b1600008160045f8573ffffffffffffffffffffffffffffffffffffffff1673ffffffffffffffffffffffffffffffffffffffff1681526020019081526020015f205461068191906113e4565b11156106db5760045f8373ffffffffffffffffffffffffffffffffffffffff1673ffffffffffffffffffffffffffffffffffffffff1681526020019081526020015f20546714d1120d7b1600006106d8919061147f565b90505b8060025f9054906101000a900473ffffffffffffffffffffffffffffffffffffffff1673ffffffffffffffffffffffffffffffffffffffff166370a08231306040518263ffffffff1660e01b815260040161073691906110b4565b602060405180830381865afa158015610751573d5f803e3d5ffd5b505050506040513d601f19601f8201168201806040525081019061077591906111cd565b10156107b6576040517f08c379a00000000000000000000000000000000000000000000000000000000081526004016107ad906114fc565b60405180910390fd5b4260035f8473ffffffffffffffffffffffffffffffffffffffff1673ffffffffffffffffffffffffffffffffffffffff1681526020019081526020015f20819055508060045f8473ffffffffffffffffffffffffffffffffffffffff1673ffffffffffffffffffffffffffffffffffffffff1681526020019081526020015f205f82825461084491906113e4565b9250508190555060025f9054906101000a900473ffffffffffffffffffffffffffffffffffffffff1673ffffffffffffffffffffffffffffffffffffffff1663a9059cbb83836040518363ffffffff1660e01b81526004016108a7929190611260565b6020604051808303815f875af11580156108c3573d5f803e3d5ffd5b505050506040513d601f19601f820116820180604052508101906108e791906112bc565b610926576040517f08c379a000000000000000000000000000000000000000000000000000000000815260040161091d90611331565b60405180910390fd5b8173ffffffffffffffffffffffffffffffffffffffff167f896e034966eaaf1adc54acc0f257056febbd300c9e47182cf761982cf1f5e4308260405161096c9190610fae565b60405180910390a2505061097e610ec5565b565b6706f05b59d3b2000081565b610994610df8565b61099d5f610ece565b565b5f6714d1120d7b16000060045f8473ffffffffffffffffffffffffffffffffffffffff1673ffffffffffffffffffffffffffffffffffffffff1681526020019081526020015f2054106109f4575f9050610a48565b60045f8373ffffffffffffffffffffffffffffffffffffffff1673ffffffffffffffffffffffffffffffffffffffff1681526020019081526020015f20546714d1120d7b160000610a45919061147f565b90505b919050565b5f805f9054906101000a900473ffffffffffffffffffffffffffffffffffffffff16905090565b5f6714d1120d7b16000060045f8473ffffffffffffffffffffffffffffffffffffffff1673ffffffffffffffffffffffffffffffffffffffff1681526020019081526020015f205410610ae9577fffffffffffffffffffffffffffffffffffffffffffffffffffffffffffffffff9050610ba4565b5f60035f8473ffffffffffffffffffffffffffffffffffffffff1673ffffffffffffffffffffffffffffffffffffffff1681526020019081526020015f205403610b35575f9050610ba4565b5f6201518060035f8573ffffffffffffffffffffffffffffffffffffffff1673ffffffffffffffffffffffffffffffffffffffff1681526020019081526020015f2054610b8291906113e4565b9050804210610b94575f915050610ba4565b4281610ba0919061147f565b9150505b919050565b60025f9054906101000a900473ffffffffffffffffffffffffffffffffffffffff1681565b5f8111610c10576040517f08c379a0000000000000000000000000000000000000000000000000000000008152600401610c079061119b565b60405180910390fd5b60025f9054906101000a900473ffffffffffffffffffffffffffffffffffffffff1673ffffffffffffffffffffffffffffffffffffffff166323b872dd3330846040518463ffffffff1660e01b8152600401610c6e9392919061151a565b6020604051808303815f875af1158015610c8a573d5f803e3d5ffd5b505050506040513d601f19601f82011682018060405250810190610cae91906112bc565b610ced576040517f08c379a0000000000000000000000000000000000000000000000000000000008152600401610ce490611331565b60405180910390fd5b3373ffffffffffffffffffffffffffffffffffffffff167f7a5b46da290ee3d909b4070dcddb80b741e0365f2deb452791308c5c079fc57382604051610d339190610fae565b60405180910390a250565b6003602052805f5260405f205f915090505481565b6714d1120d7b16000081565b6004602052805f5260405f205f915090505481565b610d7c610df8565b5f73ffffffffffffffffffffffffffffffffffffffff168173ffffffffffffffffffffffffffffffffffffffff1603610dec575f6040517f1e4fbdf7000000000000000000000000000000000000000000000000000000008152600401610de391906110b4565b60405180910390fd5b610df581610ece565b50565b610e00610f8f565b73ffffffffffffffffffffffffffffffffffffffff16610e1e610a4d565b73ffffffffffffffffffffffffffffffffffffffff1614610e7d57610e41610f8f565b6040517f118cdaa7000000000000000000000000000000000000000000000000000000008152600401610e7491906110b4565b60405180910390fd5b565b600260015403610ebb576040517f3ee5aeb500000000000000000000000000000000000000000000000000000000815260040160405180910390fd5b6002600181905550565b60018081905550565b5f805f9054906101000a900473ffffffffffffffffffffffffffffffffffffffff169050815f806101000a81548173ffffffffffffffffffffffffffffffffffffffff021916908373ffffffffffffffffffffffffffffffffffffffff1602179055508173ffffffffffffffffffffffffffffffffffffffff168173ffffffffffffffffffffffffffffffffffffffff167f8be0079c531659141344cd1fd0a4f28419497f9722a3daafe3b4186f6b6457e060405160405180910390a35050565b5f33905090565b5f819050919050565b610fa881610f96565b82525050565b5f602082019050610fc15f830184610f9f565b92915050565b5f80fd5b610fd481610f96565b8114610fde575f80fd5b50565b5f81359050610fef81610fcb565b92915050565b5f6020828403121561100a57611009610fc7565b5b5f61101784828501610fe1565b91505092915050565b5f73ffffffffffffffffffffffffffffffffffffffff82169050919050565b5f61104982611020565b9050919050565b6110598161103f565b8114611063575f80fd5b50565b5f8135905061107481611050565b92915050565b5f6020828403121561108f5761108e610fc7565b5b5f61109c84828501611066565b91505092915050565b6110ae8161103f565b82525050565b5f6020820190506110c75f8301846110a5565b92915050565b5f819050919050565b5f6110f06110eb6110e684611020565b6110cd565b611020565b9050919050565b5f611101826110d6565b9050919050565b5f611112826110f7565b9050919050565b61112281611108565b82525050565b5f60208201905061113b5f830184611119565b92915050565b5f82825260208201905092915050565b7f416d6f756e74206d7573742062652067726561746572207468616e20300000005f82015250565b5f611185601d83611141565b915061119082611151565b602082019050919050565b5f6020820190508181035f8301526111b281611179565b9050919050565b5f815190506111c781610fcb565b92915050565b5f602082840312156111e2576111e1610fc7565b5b5f6111ef848285016111b9565b91505092915050565b7f496e73756666696369656e742062616c616e63650000000000000000000000005f82015250565b5f61122c601483611141565b9150611237826111f8565b602082019050919050565b5f6020820190508181035f83015261125981611220565b9050919050565b5f6040820190506112735f8301856110a5565b6112806020830184610f9f565b9392505050565b5f8115159050919050565b61129b81611287565b81146112a5575f80fd5b50565b5f815190506112b681611292565b92915050565b5f602082840312156112d1576112d0610fc7565b5b5f6112de848285016112a8565b91505092915050565b7f546f6b656e207472616e73666572206661696c656400000000000000000000005f82015250565b5f61131b601583611141565b9150611326826112e7565b602082019050919050565b5f6020820190508181035f8301526113488161130f565b9050919050565b7f4d6178696d756d20636c61696d206c696d6974207265616368656400000000005f82015250565b5f611383601b83611141565b915061138e8261134f565b602082019050919050565b5f6020820190508181035f8301526113b081611377565b9050919050565b7f4e487b71000000000000000000000000000000000000000000000000000000005f52601160045260245ffd5b5f6113ee82610f96565b91506113f983610f96565b9250828201905080821115611411576114106113b7565b5b92915050565b7f43616e206f6e6c7920636c61696d206f6e6365207065722064617900000000005f82015250565b5f61144b601b83611141565b915061145682611417565b602082019050919050565b5f6020820190508181035f8301526114788161143f565b9050919050565b5f61148982610f96565b915061149483610f96565b92508282039050818111156114ac576114ab6113b7565b5b92915050565b7f46617563657420697320656d70747900000000000000000000000000000000005f82015250565b5f6114e6600f83611141565b91506114f1826114b2565b602082019050919050565b5f6020820190508181035f830152611513816114da565b9050919050565b5f60608201905061152d5f8301866110a5565b61153a60208301856110a5565b6115476040830184610f9f565b94935050505056fea26469706673582212203f4adf2239066ca9007813ccc31b6ec1dc7cb072fd5b13a554d861ccb17b316a64736f6c63430008140033","linkReferences":{}},"methodIdentifiers":{"CLAIM_PERIOD()":"21241dfe","DAILY_CLAIM_AMOUNT()":"6c8cbd0d","MAX_CLAIM_AMOUNT()":"e362b4f7","claimTokens()":"48c54b9d","fundFaucet(uint256)":"ae0140b4","lastClaimTime(address)":"b77cf9c6","owner()":"8da5cb5b","remainingClaimableAmount(address)":"76df5926","renounceOwnership()":"715018a6","timeUntilNextClaim(address)":"92d82dbe","totalClaimed(address)":"ef5d9ae8","transferOwnership(address)":"f2fde38b","wbbtToken()":"a8cb6250","withdrawTokens(uint256)":"315a095d"},"id":41}